:020000040800F2
:10800000780A0020F9810008ED960008058F000825
:108010000000000000000000000000000000000060
:108020000000000000000000000000001BA300088A
:10803000000000000000000005A000081DA30008CB
:108040000B8200080B8200080B8200080B820008DC
:108050000B8200080B8200080B8200088D8D00083F
:10806000000000000B8200080B82000800000000E6
:10807000658800080B8200080B82000800000000E1
:1080800075A400080B820008000000000B820008A5
:10809000000000000B8200080B8200080B82000821
:1080A000000000000B820008000000000B820008A6
:1080B00089A7000800000000000000000000000088
:1080C0000448854600F084FB0048004731880008DA
:1080D000C046C046780A0020F7B5A4B00646174649
:1080E000002504A80390FF22802100F0CFF8F009BA
:1080F000C00102907006400E01900198C0198028BE
:1081000001D927B0F0BD02F0FBFC002800D0F8E751
:10811000019A039988183A46259900F0A5F8642039
:1081200000F050FE3348406901210843314948615D
:1081300000BFEFF31080044672B612E0A80004A955
:108140000958029801600298001D0290681CC5B28F
:108150001F2D06D1274840690121C904084325493C
:108160004861202DEAD3642000F02CFE21484069AC
:10817000400840001F49486100BF84F3108800BFD9
:1081800002F064FC002800D0BBE700BFB9E7F3B5FC
:1081900081B00024019E029F642000F013FE154868
:1081A0004069012108431349486100BFEFF3108083
:1081B000054672B60EE0386830603F1D361D601C03
:1081C000C4B21F2C06D10B4840690121C9040843E1
:1081D00008494861202CEED3642000F0F3FD0548E7
:1081E0004069400840000349486100BF85F310889A
:1081F00000BFFEBD002002400448804704480047FD
:10820000FEE7FEE7FEE7FEE7FEE7FEE709A400085B
:10821000C180000830B50B46014600202022012411
:1082200009E00D46D5409D4205D31D469540491BAA
:108230002546954040191546521E002DF1DC30BDF3
:1082400070B500242546002801DA012440420029A7
:1082500001DA01254942FFF7DDFFAC4200D0404280
:10826000002C00D0494270BD03460B439B0703D04E
:1082700009E008C9121F08C0042AFAD203E00B78EB
:108280000370401C491C521EF9D27047D2B201E063
:108290000270401C491EFBD270470022F6E710B561
:1082A00013460A4604461946FFF7F0FF204610BD64
:1082B000F0B507460846584087B0C00F0490480004
:1082C0000E46590040084908BC1A884105D2384674
:1082D00031461E4617460B460246580040081043DA
:1082E0004DD0300D039040055900400D490D0590CB
:1082F000401A0290402873DA18030121000B090587
:108300000843019004980092002806D01146019A73
:1083100049420020904100910190029840210A1AA0
:108320000199009800F0C0F905460C466B4607CB52
:1083300000F0DBF9C0197141039A0E0D0023D71725
:1083400056401A467A40164344D0049A002A2DD04B
:10835000029A012A039A15DC1205C01A91410126DE
:108360003605001C7141D20F059ED2070093019281
:1083700002962A46234600F0D8F907B0F0BD3846E9
:108380003146FAE71605234A0F46B218C01AB7411C
:1083900001210905001C4F4100187F4111461818A2
:1083A0007941E20F10436D19644113E0E2076D0853
:1083B00015436408C2071443039A01261205C01A24
:1083C00091413605001C7141CE07400830434908F1
:1083D000C01851412A46234600F09AF9CDE7FFE73D
:1083E000049801224000C117121A00238B410498FF
:1083F0003146C417381AA141EEE730B40124E4072E
:10840000634030BC54E730B40124E407614030BC21
:108410004EE700000000E0FFF0B51FB488B00B99F4
:108420000998002448400999C00F4900490809915A
:10843000C0070B990090490049080B9109990898C9
:10844000A64608431CD00B990A98084318D00998EF
:1084500001244000420D4800410D09982405000305
:10846000000B204309900B980003000B20430B9056
:1084700050181C494018002201901446104605E08F
:10848000002001460DB0F0BD032801DA034600E0EC
:1084900003239C46C11A0AAE0AE05F0008ADED5BFB
:1084A0004F00F75B7D430027AA187C41491C5B1EE7
:1084B0006145F2DD410004AB5A522104120C0A431B
:1084C000240C401C0828DFDB0198029000997046BC
:1084D00001910090059B049A0799069800F025F9F0
:1084E000D0E700000DFCFFFFF0B50C465C4085B006
:1084F000E40FE40703944C000026640859009446F6
:10850000490802460296224321D062460A431ED001
:108510006200570D4A000E032303550D0124024645
:108520002C492405781B1B0B360B4018234326438C
:10853000614600901C46501AB44103D30098401C79
:10854000009002E0921800985B41002803DA0020B6
:10855000014605B0F0BD0020012109050746864609
:1085600011E064461D46141BB54106D36546521BF7
:10857000B341744607430C43A646CD07400849085B
:10858000284392185B4105460D43EAD11046184333
:1085900013D06046194650407140084306D06046EB
:1085A000101AB34106D20122002306E00022012363
:1085B000DB0702E00122D243531000987446010504
:1085C000381C6141029C039D0019694100F0A0F82C
:1085D000BFE70000FD0300000EB5C217C10F5040F9
:1085E000CA0740180021054B0293019200910A46E8
:1085F0000B4600F09AF803B000BD00003304000001
:108600000EB505490291002100910A460B460191E1
:1086100000F08BF803B000BD330400004A000903EA
:108620000123090B1B051943094B10B5520D9A4242
:1086300001DA002010BD064B34339A4203DC9A1A4B
:1086400000F042F810BD03495118884010BD0000E9
:10865000FF030000CDFBFFFF10B5002904DB012460
:10866000E40740428C412146002B04DB1C460123D9
:10867000DB075242A3418B4200D1824210BD000071
:1086800010B5002904DB0124E40740428C41214657
:10869000002B04DB1C460123DB075242A341994215
:1086A00000D1904210BD000010B5202A04DB014625
:1086B000203A9140002010BD914020239C1A03468F
:1086C000E3401943904010BD10B5202A04DB084652
:1086D000203AD040002110BD0B46D340D04020248A
:1086E000A21A91400843194610BD10B5202A06DB96
:1086F000CB170846203A1041C1170B4306E00B4642
:108700001341D0402024A21A91400843194610BDBD
:1087100010B5002B08DA0024401C614192185B411F
:108720001A4301D14008400010BDF0B51FB482B01B
:1087300005460C0003D0084602F04FF802E002F0B4
:108740004CF820300246009021462846FFF7ACFF47
:10875000049B059A04460F4618431143084314D05E
:10876000184610431BD0009840210A1A1846059954
:10877000FFF7AAFF05460E46009A05990498FFF7F1
:1087800093FF084305D0012004E02046394607B096
:10879000F0BD0020C11705430E432C433743009919
:1087A0000E986305401A7905E40A00220C43FD0A7D
:1087B0000A3002D500200146E9E701051019694198
:1087C0000C9C0D9D00196941FFF7A2FFDFE7000037
:1087D000064C0125064E05E0E36807CC2B430C3C14
:1087E00098471034B442F7D3FFF76EFC48B5000841
:1087F00068B5000830B58C180278401C13071B0FB1
:1088000001D10378401C120906D10278401C03E014
:1088100005780D70401C491C5B1EF9D101E00B70FE
:10882000491C521EFBD1A142E6D3002030BD0000FE
:1088300070B50125ED06002406E0A0002858A1002F
:10884000064A5050601CC4B2302CF6DB01204007B1
:108850000349886002F074FB002070BD0000002016
:1088600000ED00E010B500BF074800680421084093
:108870008008002806D000BF04200349086000BF1C
:1088800000F0DCF810BD00000024014010B500BF6E
:10889000012000054849096B0143474A116300BFA5
:1088A00000BF1146096B8143116300BF00BF012067
:1088B00000F058FD032201210520000700F023FDF0
:1088C0000120000500F0F0FB3C4800F0D0FB002840
:1088D0000AD100BF3A490968032292059143014336
:1088E000374A116000BF00BF012000073349096902
:1088F000090109090143314A116100BF00211046F5
:1089000000F0BDFB00212D4800F0B9FB00202B49F1
:10891000C9680122920391430143284AD16000BFF4
:10892000052011464969C908C9000143516100BFCA
:1089300000201146C96837229201914301431F4A22
:10894000D16000BF00BF1146C96852149143014372
:108950001A4AD16000BF00BF1146C9688908890062
:108960000143D16000BF90141146C968024691438B
:108970000143124AD16000BF00201146C96801229C
:108980001204914301430D4AD16000BF01200D49FB
:108990000140916200BF00BF1046406804210843B7
:1089A0001146486000BF00210C2000F0ABFE0C20F7
:1089B00000F09EFE10BD00000010024000240140A7
:1089C00008270140FF1B000008B50020009019484F
:1089D00000F04DFB002823D100BF164880681649DF
:1089E0000840890740181349886000BF00BF00BFD6
:1089F00010488068C00F0028F9D12020009002E0C4
:108A00000098401E009000980028F9D100BF094846
:108A1000806809490840401C0649886000BF00BFC3
:108A200000BF0448806804490840001D014988606F
:108A300000BF08BD00240140EAFFFF7F70B586B08B
:108A400000BF4D48006C80B24C49088000240FE004
:108A500060004B49085A49490988884206DA20468D
:108A6000FFF7CEFD474A1060516003E0601CC4B2BE
:108A7000292CEDD300BF0022434B424908684968C6
:108A8000FFF7FEFD07D9002213463E4908684968F2
:108A9000FFF7E2FD0ED801203C49087000203C4958
:108AA000384A10605160002139483A4A11605060DC
:108AB00006B070BD0022384B324908684968FFF79C
:108AC000ABFC304A10605160002C2ADD62002C495A
:108AD0008A5A611E49002A4B595A501AFFF77CFDE9
:108AE00005460E466100264A525A24490988881ACA
:108AF000FFF772FD2A46334601910090FFF7F4FC20
:108B00000022254B03910290FFF786FC059104900B
:108B10001C48026843680498FFF7CAFB194A1060B2
:108B200051601A480078002809D01648016840684A
:108B3000184A1160506000201449087019E0174A63
:108B4000174B104908684968FFF766FC05460E4652
:108B5000124A5242134B0F4908684968FFF75CFC00
:108B60002A46334605910490FFF7A2FB094A10609C
:108B7000516000BF9CE70000002401405401002028
:108B8000DAB20008400100200000444056010020F5
:108B9000E0FFEF4048010020000024409A99999995
:108BA0009999A93F6666EE3FF7B507461546042139
:108BB000052000F009FA0021012000F02FFA8021A1
:108BC0000A2000F045FA002405E0395D092000F094
:108BD00025FA601CC4B201988442F6DB032101200F
:108BE00000F01CFAFF2400BF052000F0FDF9064646
:108BF000601EC4B2002C03D0042030400028F3D003
:108C0000222000F0F1F92870212000F0EDF96870C1
:108C1000FEBD000010B500F0FFFE0B4908700846CD
:108C200000780A49097888420DD00748007807493A
:108C3000087005480078AA2805D10523044A0121B7
:108C4000022000F077F810BD9E0100209D01002059
:108C500021060020F8B504460E463146204602F0B3
:108C60009FF9002801D00020F8BD2078882801D085
:108C70000020F9E76078032806D0042835D00528BD
:108C80003AD006284ED147E0A078102817D1002509
:108C900009E00A20684325494018007A002800D1DD
:108CA00003E0681CC5B20A2DF3DB00BF0A2068434D
:108CB000C3B21E4A1121032000F03CF800BFA07887
:108CC000122811DBA0781C280EDAA17812390A22AA
:108CD0005143164A88180922211DFFF7C5FAA178C9
:108CE0001239C8B200F08AF81DE0A078022802D13B
:108CF00000200F49086016E0A07801280BD1002160
:108D0000684601706521417002236A4619460520B4
:108D100000F010F800BF06E0B01FC1B2201D02F045
:108D20003DFA00E000BF00BF00BF9DE7DC0000206F
:108D300084010020FFB5C1B005460F461C4612480D
:108D40000068002803D0062D01D045B0F0BD882171
:108D50006846017145718771C471224602A8439922
:108D6000FFF782FA211D01A802F01AF9064601AAAE
:108D7000201D16543112601D1154A01DC1B201A84E
:108D800002F0F0F900BFE0E73C06002010B510202B
:108D900000F02EFA002804D0102000F093F901F022
:108DA000C1FF0120000300F023FA002806D00120B3
:108DB000000300F087F902200149888110BD0000FE
:108DC000B402002070B5044602F006F9051905E06A
:108DD00002F002F9A84201D3002070BD05480069E5
:108DE0000121090408400028F2D103480149086123
:108DF0000120F2E700200240118000007FB5054607
:108E00002448006801214902884223D900202149D1
:108E10000860214801F02EFE1F48803001F02AFE34
:108E20001E4801F027FE1D48803001F023FE00247B
:108E30000DE00A2060431A494018007A002803D048
:108E40002046FFF7DBFF00E003E0601CC4B20A2C01
:108E5000EFDB00BFFF2210216846FFF717FA012160
:108E60006846017045700A2068430D4A81180A223D
:108E700000A80230FFF7F8F906490968064A881881
:108E800010226946FFF728F90248006810300149AE
:108E900008607FBDC800002000FC000800FD00083D
:108EA000DC00002070B500201349086000241CE09D
:108EB000124820180068401C002800D119E00F4813
:108EC0002018007801280DD10C48201845780B4A4D
:108ED000A218911C0A226A43094BD0180A22FFF7F4
:108EE000C3F900BF2046103084B201204002844202
:108EF000DEDB00BF70BD0000C800002000FC0008E1
:108F0000DC00002000BFFEE71FB5FF2210216846ED
:108F1000FFF7BCF90A48007B012803D10848007814
:108F200001280BD0064801F0A5FD0121684601701B
:108F30000173102269460248FFF7CEF81FBD0000FA
:108F400000FE00087047000000BF1948006A0121B8
:108F500008431749086200BF00BF00BF1448006AF9
:108F60000221084040080028F7D000BF11481249EC
:108F7000086000BF00BF1148086000BF03204860C0
:108F800000BF0F48886000BF00BF00BF0A48C0682C
:108F90008007800F002801D1012000E00020002878
:108FA000F3D000BF07480449086000BF70470000C5
:108FB00040100240CCCC000000300040555500006D
:108FC000B80B0000AAAA000070B505460C460026A2
:108FD000284600F009F806463046A04301462846D8
:108FE00000F01CF870BD000070B504460025A00616
:108FF000400E044680340221074800F07EF92046E6
:1090000001F056F9002001F053F90546022102480B
:1090100000F077F9284670BD0004005070B5054691
:109020000C460221094800F06CF9A806450E022101
:10903000064800F062F9284601F03AF9204601F0AE
:1090400037F90221014800F05CF970BD00040050BE
:1090500070B505460C4600262846FFF7C5FF0646B4
:109060003046204301462846FFF7D8FF70BD014631
:109070008868C007C00F0122504050407047C26846
:1090800018239A430A43C2607047000008B5054997
:10909000C96B0143034AD1631146C96B014000917A
:1090A00000BF08BD0010024008B50549096801432A
:1090B000034A1160114609680140009100BF08BDD4
:1090C000401002400149C86070470000001802408B
:1090D000024949688143014A516070478018024043
:1090E000024909688143014A1160704780180240B3
:1090F000024949680143014A5160704780180240A3
:10910000024949680143014A516070470018024012
:10911000024909680143014A116070478018024002
:10912000024909680143014A116070470018024072
:1091300070B504460025207900284ED0206800280C
:1091400051D06079002804D0012809D0022815D117
:109150000DE02068FFF7BCFF2068FFF7D9FF0FE0A4
:109160002068FFF7BDFF2068FFF7C2FF08E0206816
:10917000FFF7CEFF2068FFF7BBFF01E0012500BF2E
:1091800000BFA07900282ED0A079012804D00228A1
:109190000DD003281DD115E020681449496881438A
:1091A000124A516000BF2068FFF7BAFF14E0206840
:1091B0000E49096881430D4A116000BF2068FFF71E
:1091C0009FFF09E02068FFF7ABFF2068FFF798FFDB
:1091D00002E00220054300BF05E02068FFF780FFA2
:1091E0002068FFF775FF284670BD00000018024098
:1091F00001460248C068084070470000001802405D
:10920000F0B502460B46002661E00124B44019681F
:10921000214000295AD0586814680D464D436F000C
:10922000ED19AC430D464D4345432C43146000BF3C
:109230005868012802D0586802280DD198689468AF
:109240000D464D436F00ED19AC430D464D4345436C
:109250002C43946000BF00BF1869D4680D464D438D
:109260006F00ED19AC430D464D4345432C43D4608C
:1092700000BF5868022829D1FF2911D85869146AFB
:109280000D464D434D434D432F017D1BAC430D46D1
:109290004D434D434D4345432C43146200BF15E0FD
:1092A0005F69080A40430C0A60430C0A60430401EA
:1092B000241A506AA0430C0A64430D0A6C430D0A39
:1092C0006C437C432043506200BF00BF761C18688B
:1092D000F040002899D15868012802D05868022827
:1092E00009D1DC68186855688543074667433D43E4
:1092F000556000BF00BF0120F0BD816270478161F1
:1093000070478161704730B503680C464C43650077
:109310006419A3430C464C4354432343036030BDBC
:1093200010B543688B430C4654432343436010BD40
:1093300030B5C3680C464C4365006419A3430C4622
:109340004C4354432343C36030BD30B583680C465F
:109350004C4365006419A3430C464C4354432343D8
:10936000836030BD08B50549496B0143034A516329
:109370001146496B0140009100BF08BD001002403A
:1093800070B504467D25ED0029462046FEF742FFD4
:10939000401E04494861002088610520086100BF23
:1093A00070BD000000E000E00248806838210840FD
:1093B000704700000010024010B5044600F04EFE59
:1093C0002060206800F020FE6060606800F032FEDF
:1093D000A06010BD0149086070470000C000002077
:1093E00001680122114301607047000010B5024678
:1093F00013681F48824202D01E48824205D1184697
:109400007024A0434C6820430346194882420BD085
:109410001848824208D01848824205D01748824234
:1094200002D01748824206D1184603242402A043E2
:10943000CC682043034613608868D06200BF088868
:10944000906200BF0A48824205D00C48824202D096
:109450000B48824203D1087C106300BF00BF00BFED
:10946000506901242043506100BF012010BD00005D
:10947000002C014000040040002000400044014056
:1094800000480140F8B506460C4615460027012C59
:109490000AD0102C0ED0E01FF938002810D00F2170
:1094A0000902401A18D111E02946304600F066F949
:1094B000074612E02946304600F0B0F907460CE0B6
:1094C0002946304600F008FA074606E029463046AD
:1094D00000F05CFA074600E000BF00BF3846F8BD68
:1094E000816370470021016041608160C16001615A
:1094F00041618161C1617047FEB505460C46002798
:109500000026284600F038F8002831D1E16860686C
:10951000084321690843E968164A11400843E86096
:1095200068690121C9028843A16908436861A0688C
:1095300029690122520391430143296100BF6069F7
:1095400069690322120291430143696100BF6846C1
:10955000FFF732FF029E002E0AD02068002807D0B5
:109560000127314628462368A26900F00CF800BFA5
:109570003846FEBDF3E9FFFF0146C86801225203E9
:109580001040400B7047FFB583B00C461D460121CB
:10959000C9020598884247D16900192262431046E2
:1095A000FEF738FE06466421FEF734FE0701690027
:1095B000192262431046FEF72DFE06466900192265
:1095C00062431046FEF726FE64210190FEF722FE5C
:1095D00064214843301AC00032300290FEF71AFE70
:1095E000F821084040003F186900192262431046E4
:1095F000FEF710FE06466900192262431046FEF788
:1096000009FE64210190FEF705FE64214843301AEB
:10961000C00032300290FEF7FDFD4007400F3818C1
:1096200081B20398816045E0A90019226243104687
:10963000FEF7F0FD06466421FEF7ECFD0701A900E8
:10964000192262431046FEF7E5FD0646A9001922DD
:1096500062431046FEF7DEFD64210190FEF7DAFD5D
:1096600064214843301A000132300290FEF7D2FDE7
:10967000F02108403F18A900192262431046FEF766
:10968000C9FD0646A900192262431046FEF7C2FD35
:1096900064210190FEF7BEFD64214843301A0001A9
:1096A00032300290FEF7B6FD0007000F381881B285
:1096B0000398816007B0F0BD08B501460A4A1269F7
:1096C000009200BF0846421C002A00D0401C07E060
:1096D000054A126901231B041A40002A00D0401ECB
:1096E0000028F5D108BD000000E000E07047000050
:1096F000C206D20E01219140014A1160704700005C
:1097000000E100E010B5002819DA1A4A03071B0F20
:10971000083B9B089B00D2588307DC0EFF23A34025
:109720009A438B071B0E8407E40EA3401A43114B88
:109730000407240F083CA408A4001A5118E00E4A9C
:1097400003231B02D21883089B00D2588307DC0E28
:10975000FF23A3409A438B071B0E8407E40EA3400C
:109760001A43054B032424021B198408A4001A5130
:1097700010BD00001CED00E000E100E070B5024605
:10978000106A400840001062136A55689469A40882
:10979000A40020467026B0430E68304304461846A5
:1097A0000226B0430E6930430346580840004E6815
:1097B000304303461648824205D01648824202D002
:1097C000154882421CD118460826B0434E69B6009F
:1097D0003043034618460426B0438E68B600304333
:1097E00003462846FF260136B0438E6930430546BE
:1097F000284601267602B043CE69760030430546FE
:1098000055609461C868506300BF1362012070BD49
:10981000002C01400044014000480140F8B50446D6
:109820000D46206A102188432062266A60680090F5
:10983000A7690321090238468843074638460721AD
:109840000903884329680902084307463046202156
:109850008843296909010843064630461021884398
:1098600069680901084306461848844205D018482B
:10987000844202D0174884421DD13046802188435B
:109880006969890108430646304640218843A96832
:109890008901084306460121890200988843A96985
:1098A0008900084300900121C90200988843E969B2
:1098B000C9000843009000986060A7612046E968ED
:1098C000FFF70EFE26620120F8BD0000002C0140CB
:1098D000004401400048014070B50246106AFF266E
:1098E0000136B0431062136A5568D469A408A40015
:1098F00020467026B0430E683043044618460126C1
:109900007602B0430E693602304303461846FF26FE
:109910000136B0434E68360230430346184882424F
:1099200005D01848824202D0174882421FD11846FB
:109930000126F602B0434E69B6023043034618468C
:109940000126B602B0438E68B6023043034628466D
:1099500001263603B0438E6936013043054628465A
:1099600001267603B043CE69760130430546556043
:10997000D461C868D06300BF1362012070BD0000CD
:10998000002C0140004401400048014070B50246EF
:10999000106A01263603B0431062146A5568D36911
:1099A000032636021846B0430346184607263603F8
:1099B000B0430E6836023043034620460126760344
:1099C000B0430E6936033043044620460126360371
:1099D000B0434E683603304304460C48824205D0FB
:1099E0000B48824202D00B48824207D1284601260A
:1099F000B603B0438E69B601304305465560D36166
:109A0000C868106400BF1462012070BD002C0140C2
:109A10000044014000480140F0B58BB000200290A6
:109A20000027019000900AA9262000F00FFA0028D4
:109A300023D074480068401C7249086008460068DA
:109A4000082817DB002008606F480078012811D132
:109A50006E480078401CC0B26C490870012809DBD0
:109A6000002008706849087069490870487088705B
:109A7000C870087101200BB0F0BD6248006808286A
:109A800006DB00F0D1FE00205E4908600120F2E70D
:109A9000932107A800F002F9002806D05948006871
:109AA000401C584908600120E5E702A907A800F01A
:109AB000F8F9002806D053480068401C5149086056
:109AC0000120D8E76846007A04210840002845D0E4
:109AD0000027002F3ED1952108A800F0DFF80028CC
:109AE00006D048480068401C464908600120C2E78B
:109AF00002A908A800F010FA002806D04148006822
:109B0000401C404908600120B5E76846007A0421FE
:109B1000084000281FD000200190019800286ED135
:109B2000972109A800F0BAF8002806D03548006847
:109B3000401C3449086001209DE702A909A800F0F3
:109B400026FA002806D02F480068401C2D490860DE
:109B5000012090E753E00120019050E00127002010
:109B6000284908606946C87F0006897F09040843C0
:109B70006946497F090208436946097F0843009006
:109B800000241AE00A210098FEF744FB0D460A2142
:109B90000098FEF73FFB00900A210098FEF73AFB81
:109BA0000E460A210098FEF735FB0090300140195F
:109BB0000421091B03AA5054641C052CE2DB6846EF
:109BC000007B134908706846407B48706846807B7C
:109BD00088706846C07BC8706846007C08710120A8
:109BE00009490870002009490870052208490948F8
:109BF000FEF73AFB012007490876AA203BE7002040
:109C000039E70000A4010020AE010020AF010020D0
:109C1000A90100202106002010B508210846FFF701
:109C2000D3F900211220FFF7F9F900211320FFF7E3
:109C3000F5F926212420FFF7F1F968212620FFF706
:109C4000EDF980212A20FFF7E9F9A9212B20FFF760
:109C5000E5F903212C20FFF7E1F9E8212D20FFF79A
:109C6000DDF940211520FFF7D9F93D211120FFF73B
:109C7000D5F900210120FFF7D1F900F001F810BD5E
:109C800010B51420FFF7B0F90446A007800F002894
:109C900003D103211420FFF7DBF910BDF0B589B023
:109CA00005460E46002708210846FFF78DF90021DA
:109CB0000D20FFF7B3F980210E20FFF785F96846E4
:109CC00006722021417207A802AB022202A900906D
:109CD0000C2000F01DF808900898002811D10024ED
:109CE00007E002A8005D285502A8005D4740601CFF
:109CF000C4B2042CF5DB02A8005DB84201D00220FA
:109D0000089080210E20FFF7A3F9089809B0F0BD54
:109D1000FFB583B00646022002900020019000901B
:109D20000C2E06D00E2E09D112200190102000908A
:109D300005E0772001903020009000E000BF00BFD8
:109D400080210420FFF740F900210120FFF766F988
:109D500080210A20FFF77CF9002505E00498415D89
:109D60000920FFF75BF96D1C05988542F6D3314653
:109D70000120FFF753F90C2E03D180210D20FFF7AE
:109D800067F94B25ED0000BF0420FFF72DF90446CD
:109D90006D1E002D07D0E007C00F002803D10098EA
:109DA00020400028F0D080210D20FFF70DF9002D74
:109DB0003ED00620FFF718F9234908700620FFF768
:109DC00013F91B210840002830D10290019820404F
:109DD000C007C00F002801D0012002900C2E27D10F
:109DE0000A20FFF701F904460C20FFF7FDF84707AA
:109DF0007F0F002F05D0601EC000C1190C980160B4
:109E000002E0E1000C980160002C00D10124122C2A
:109E100000DD1224002506E00920FFF7E5F80146E1
:109E2000069841556D1CA542F6D301E00220029030
:109E300080210C20FFF70CF900210120FFF7EEF83C
:109E4000029807B0F0BD0000A801002070B588B0EE
:109E500005460C4608210846FFF7B6F807210D20F5
:109E6000FFF7DCF803211420FFF7F2F868460572CB
:109E700007A802AB012202A900900C20FFF748FFBF
:109E80000646002E09D10798102806D16846007AA8
:109E900020706846407A607000E00226304608B0C4
:109EA00070BDF0B587B005460F4693216846017135
:109EB000702141710021817200240BE0295D01AA0B
:109EC000A01C11546946887A295D48406946887209
:109ED000601CC4B2042CF1DB02AA0332072101A8E2
:109EE000FEF762FE08210846FFF76EF806A801ABF0
:109EF000092201A900900C20FFF70AFF0646002E58
:109F000006D10698182803D168460079387000E019
:109F10000226304607B0F0BDF0B587B005460F46C3
:109F200095216846017170214171002181720024E0
:109F30000BE0295D01AAA01C11546946887A295DAD
:109F4000484069468872601CC4B2042CF1DB02AA46
:109F50000332072101A8FEF727FE08210846FFF774
:109F600033F806A801AB092201A900900C20FFF7E5
:109F7000CFFE0646002E06D10698182803D1684663
:109F80000079387000E00226304607B0F0BDF0B529
:109F900087B005460F4695216846017170214171D1
:109FA0000021817200240BE0295D01AAA01C11543C
:109FB0006946887A295D484069468872601CC4B247
:109FC000042CF1DB02AA0332072101A8FEF7ECFD05
:109FD00008210846FEF7F8FF06A801AB092201A9EF
:109FE00000900C20FFF794FE0646002E06D106983E
:109FF000182803D168460079387000E00226304600
:10A0000007B0F0BD70470000014600BF07488068F8
:10A010000F22120210401040000A8000044A105C17
:10A02000C206D20E0846D040704700000010024021
:10A0300034B20008014600BF0648806807221203B8
:10A040001040000B8000044A105CC206D20E084685
:10A05000D04070470010024074B2000870B5FFF79E
:10A06000A3F900280FD0082804D0182804D02028ED
:10A0700008D104E0114C1EE00124E40300BF0124D8
:10A08000E40300BF00BF00BF0D4800680721C902FC
:10A090000840C10A0120884005460949496807224D
:10A0A00052031140490B8900064A50582946FEF7D1
:10A0B000B1F8044600BF00BF204670BD00366E01F7
:10A0C0000010024094B2000810B575484089401C49
:10A0D0007349488108468089002811D00846808944
:10A0E000401E888108468089002809D10520000784
:10A0F0000069012109030840002802D1684948810C
:10A10000CCE067494A896749887B411CCBB26549E5
:10A110008B734300FF39F339CA5200241BE00A2035
:10A1200060436149085A5E494989884212DA5C48AD
:10A1300041890A2060435C4A80184088814209DADC
:10A14000212109015648FEF7A8F855490C72012053
:10A15000C87110BD641C032CE1DB5148C079002894
:10A1600031D04F48007A0A2148434F4940180079BE
:10A170004B494989884226DA49484189007A0A22AE
:10A180005043494A8018407981421CDA444B9979FE
:10A19000CB175B0F5B18DB10414C1A1923469879DB
:10A1A000C3175B0F1B18DB10DB00C31A0724E41A6C
:10A1B0000123A34014782343137039488079401C4D
:10A1C000374988713FE03648C079002831D034489B
:10A1D000007A0A2148433449401880793049498936
:10A1E000884226DA2E484189007A0A2250432E4AB4
:10A1F0008018C07981421CDA294B9979CB175B0F03
:10A200005B18DB10264C1A1923469879C3175B0F8D
:10A210001B18DB10DB00C31A0724E41A0123A34038
:10A2200014789C4314701E488079401C1C49887126
:10A2300009E01B48C079002805D0212109011848F0
:10A24000FEF72BF885E716488179007A0A225043F9
:10A25000154A8018007A814220D11148807900285F
:10A260001CDD0120114948720D48007A88720C49A2
:10A27000097A0A2251430C4A8918087AC117490FF2
:10A280000918C910094A1172062205490748FDF745
:10A29000EBFF212109010248FDF7FFFF00BF58E74E
:10A2A000B4020020B4040020DC000020C40400201C
:10A2B000F8B5054600268024002700BF29E080214C
:10A2C00005200007FFF719F828462040002805D090
:10A2D000402105200007FFF714F804E04021052085
:10A2E0000007FFF70AF8802105200007FFF709F8AB
:10A2F00020200521090709690140814201D101217E
:10A3000000E00021012902D13046204306466410B6
:10A310007F1C082FD3DB3046F8BD70470B48006820
:10A32000401C0A4908600A48407800280CD00848B8
:10A330004078401C06494870084640780A2803DBEC
:10A34000002048700120887070470000D000002075
:10A35000B001002010B500BF27480068FF2101317F
:10A3600008432549086000BF2449098AC804C00C75
:10A370000122D203104320494968090C0904014312
:10A380001D4A516000BF00BF00BF1B48006801218B
:10A3900089020840800A0028F6D000201649896802
:10A3A0000F22120291430143134A916000BF00BF84
:10A3B00011468968C908C9000143916000BF00BF08
:10A3C00000BF0D488068382108400028F8D100BF40
:10A3D000094989680722120391430143064A9160A3
:10A3E00000BF0748FEF7CCFF0548FEF7F3FF032048
:10A3F0000449086110BD000000100240000FFF1F5B
:10A4000000366E0100E000E007484068000C0004E0
:10A410000121490340180549496808430249486039
:10A42000C80303498860704700100240000FFF1FF7
:10A4300000ED00E000200B4908800B4908800B4923
:10A4400008800B4908800BE0064800F027F8064812
:10A4500000F05CF8054800F081F8054800F016F9B6
:10A46000F2E7000060010020700100207801002068
:10A470006801002010B500BF0120C04305490861F4
:10A4800000BF05480068401C03490860FFF71CFE38
:10A4900010BD000000040040D400002010B50446A8
:10A4A0002088002802D0302825D104E022E000BF17
:10A4B0003020208000BF1248007E002800D110BD4F
:10A4C00000BF1048016810480068C830814206D9B2
:10A4D00004230B4A521C01210846FEF72BFC1921CC
:10A4E0000748FDF7DAFE07480068074908600020C2
:10A4F00003490876DBE7002020800220DFE7000028
:10A5000008060020D00000208801002010B5044675
:10A510002088002802D0492817D104E014E000BFA9
:10A520004920208000BF0B488078002800D110BD52
:10A5300000BF0948C178FD38FEF78CFB00210648B2
:10A54000C170002003498870E9E7002020800220C4
:10A55000EDE70000B0010020B002002038B504464D
:10A560002088002802D0772879D16CE076E000F0CE
:10A570005FFE0A213C480068FDF74CFE002905D12A
:10A5800000BF3A483A49086000BF00BF0A21364878
:10A590000068FDF73FFE002901D1FEF715FA64219E
:10A5A00031480068FDF736FE022917D131490868A5
:10A5B0004968FEF733F80004010E684601702D4922
:10A5C00008684968FEF72AF8C1B26846417002235C
:10A5D0006A4601210420FEF7ADFB00BF2648006853
:10A5E0002649884217D900BF00BF00BF00BF00BF87
:10A5F000BFF34F8F00BF00BF00BF21482149C86093
:10A6000000BF00BF00BFBFF34F8F00BF00BF00BF40
:10A6100000BF00BFFDE71C480068002801D1FEF71D
:10A62000F9FA11480068401C0F4908601248006898
:10A63000401C1149086000BF00F0CEFC606000BF04
:10A640007720208000BF00F0C7FC6168401A6428B2
:10A6500002D2002038BD02E000BF00BF87E7002023
:10A6600020800220F6E700008C010020AAAA00004A
:10A6700000300040480100208401002070170000D5
:10A680000400FA0500ED00E03C06002070B5054628
:10A6900000242888002802D08A2866D104E063E0DC
:10A6A00000BF8A20288000BF3248407A002800D1AD
:10A6B00070BD00BF002408E02E48005D2E49095DF2
:10A6C000884200D005E0601CC4B22A48007AA0424B
:10A6D000F2DC00BF2748007AA0420CD12548007A5E
:10A6E00026490978884206D125480168254800682E
:10A6F000C830814228D91F48007A06281DD105217B
:10A700001C4800F05DF81B49497988421CD1194862
:10A71000C07800280AD117480079002806D1032301
:10A72000144A01211846FEF705FB0DE00623114AE5
:10A7300002210320FEF7FEFA06E00E48037A0246E5
:10A7400001210320FEF7F6FA06220A490A48FDF71E
:10A750008BFD0848007A09490870094800680949D2
:10A7600008600020034948729AE7002028800220F0
:10A770009EE70000C4040020940100209C010020FA
:10A78000D0000020900100200A48006820210840E5
:10A7900000280ED007484068C1B20748C278C07888
:10A7A000401CC3B20448C370FD38815401200349E2
:10A7B0004870704700440040B0020020B001002003
:10A7C00030B502460020002304E01478521C60409B
:10A7D0005C1CE3B28B42F8DB30BD2021020C01D0BF
:10A7E00010211046020A01D010460839020901D092
:10A7F0001046091F820801D01046891E420801D068
:10A80000881E7047081A704702E008C8121F08C166
:10A81000002AFAD170477047002001E001C1121FE1
:10A82000002AFBD17047000010B504210748FEF74D
:10A8300064FD1420FEF740FF04210448FEF761FD8B
:10A840000A20FEF739FFFFF7E7F910BD00040050BA
:10A85000F3B583B00446002540E00021002019E054
:10A86000AE00AE19361833460933DE17760FF618E8
:10A87000F610A65DAF00EF193F183A460932D71718
:10A880007F0FBF18FF10FF00D71B3E41F607F60FE2
:10A890007118401C0428E3DBAB00EB181A460D329C
:10A8A000D3175B0F9B18DB10E65CAB00EB18184668
:10A8B0000D30C3175B0F1B18DB10DB00C31A1E41E2
:10A8C000F307DB0F59180846CA0F1218521052002E
:10A8D0008A1A02D0002005B0F0BD6D1C0521049835
:10A8E000FDF7AEFC401EA842B7DC00253FE0002685
:10A8F000002719E0BA00BA18521911460931CA17CF
:10A90000520F5218D210A25CBB00FB185B191846FC
:10A910000930C3175B0F1B18DB10DB00C31A1A4189
:10A92000D207D20F96197F1C05210498FDF788FCE9
:10A93000401EB842DEDC29463B31CA17520F52187E
:10A94000D210A25C0846C3175B0F1B18DB10DB009C
:10A95000C31A1A41D207D20F96193046F10F0918BF
:10A9600049104900711A01D00020B4E76D1C042D74
:10A97000BDDB002002905CE00020019053E0029AD1
:10A980009300D318019A9A1811460931CA17520F29
:10A990005218D210A25C029B9D005D19019BEB181E
:10A9A00018460930C3175B0F1B18DB10DB00C51AF4
:10A9B0000123AB401A40002A01D0012200E000220E
:10A9C0000092009800282BD002998B0001995A1808
:10A9D0001146D5176D0F6D18ED10ED001346D61703
:10A9E000760FF618F610F600961B0727BE1BA8195F
:10A9F0000146C5176D0F6D18ED10134E755D0346BA
:10AA0000C617760FF618F610F600871B0126BE4013
:10AA10003543C617760F7618F6100B4FBD5500BF9D
:10AA20000198401C019001980428A8DB0298401C62
:10AA3000029005210498FDF703FC401E029988420C
:10AA40009ADC012047E7000008060020084840691A
:10AA50000121C90708430649486108464069C00FFB
:10AA6000C007002801D1022070470020FCE7000049
:10AA70000020024010B504461D481E494861886107
:10AA80001D48C8614B208001086200BF1B48006957
:10AA90000121090408400028F8D100F031F800280D
:10AAA00000D010BD15484069022108431349486190
:10AAB0000846406901210906084310494861FF2002
:10AAC00020606420FEF77EF90C480069C007C00FC3
:10AAD000002805D00948006940084000074908617E
:10AAE00006484069022188430449486100BFD8E70D
:10AAF0004019010000210240C05D0000002002401A
:10AB00000A484069C00FC00700280CD00848074910
:10AB100088600848886008464069C00FC007002860
:10AB200001D0012070470020FCE700000020024017
:10AB300023016745AB89EFCD05200007006910218F
:10AB40000840002801D0002070470120FCE70000E9
:10AB50001CB50120FEF706FC0220FEF703FC0022D4
:10AB6000202105200007FEF7CEFB01224021052011
:10AB70000007FEF7C8FB0322402105200007FEF76F
:10AB8000E4FB0022402105200007FEF7C9FB01225B
:10AB9000802105200007FEF7B6FB03228021052057
:10ABA0000007FEF7D2FB0022802105200007FEF7F8
:10ABB000B7FB012202215A48FEF7A5FB032202211E
:10ABC0005748FEF7C2FB002202215548FEF7A8FBBA
:10ABD00002215348FEF793FB012204215048FEF75F
:10ABE00092FB032204214E48FEF7AFFB0022042112
:10ABF0004B48FEF795FB04214948FEF780FB0022F5
:10AC0000102105200007FEF77EFB01221021052000
:10AC10000007FEF78DFB00200090019010200090AF
:10AC20000121684601710021417103218171FEF704
:10AC30007FFA00210720FEF765FD0720FEF758FD8B
:10AC4000012204213648FEF75EFB0322042134482A
:10AC5000FEF77BFB002204213148FEF761FB042153
:10AC60002F48FEF74CFB0222082105200007FEF7C3
:10AC70004AFB0322082105200007FEF766FB01229C
:10AC8000082105200007FEF753FB08200D210522AF
:10AC90001207136A02464243424342431401A41A74
:10ACA0001A46A24303464343434343434B431A4399
:10ACB00005231B071A6200BF012208211848FEF76E
:10ACC00022FB032208211648FEF73FFB0022082141
:10ACD0001348FEF725FB08201149886200BF0022B7
:10ACE000410205200007FEF70EFB0122110305209B
:10ACF0000007FEF71DFB01200003009001216846BC
:10AD000001710021417103218171FEF711FA0021C7
:10AD10000720FEF7F7FC0720FEF7EAFC1CBD000049
:10AD20000004005010B56D490968CAB26C49C87D6D
:10AD3000411CCBB26A49CB75E9390A540846173829
:10AD4000807D002813D16548006808280ED3634829
:10AD500000680D280AD8FFF7EFFE002806D0012171
:10AD60006048817501205F49203908709CE05D488A
:10AD7000807D012825D15948006803281AD35748F7
:10AD80000068072816D85748407D401CC1B2554876
:10AD90004175407D1028E9D102215248817500217A
:10ADA0004175FF204F492039087001204870092063
:10ADB000488679E0FF2139314A482038FDF76DFA9D
:10ADC00072E04848807D02286ED144480068082817
:10ADD0002AD3424800680D2826D8FFF7ADFE414926
:10ADE00008750B46203B598ECB175B0F5B18DB10A9
:10ADF0003C4C203C1A192346588EC3175B0F1B1876
:10AE0000DB10DB00C41A374B1B7DA34014782343AF
:10AE1000137034482038408E401C3249203948860F
:10AE20000021304841753FE02C480068032835D3A5
:10AE30002A480068072831D82A48407D401CC1B202
:10AE4000284841750146487DC10F0918491049003D
:10AE5000411A29D1FFF770FE224908750B46203BA5
:10AE6000598ECB175B0F5B18DB101E4C203C1A1958
:10AE70002346588EC3175B0F1B18DB10DB00C41A68
:10AE8000184B1B7DA34014782343137015482038BA
:10AE9000408E401C13492039488605E0FF21393196
:10AEA00010482038FDF7F9F90E482038408E402828
:10AEB0000FD137210B482038FFF7CAFC002802D0F9
:10AEC000012009490876FF21393106482038FDF76D
:10AED000E4F900200149086010BD0000D400002002
:10AEE000F0050020F00400200806002010B54021E5
:10AEF00005200007FEF705FA02211048FEF701FAC7
:10AF0000802105200007FEF7FCF904210B48FEF71D
:10AF1000F8F904210948FEF7F0F96420FEF7CCFBAC
:10AF200004210648FEF7EDF96420FEF7C5FBFEF7A5
:10AF300073FE6420FEF7C0FB10BD0000000400504B
:10AF400008B515481549886062B6FFF703FA00F0A6
:10AF5000ABF87D20C000FEF7AFFBFDF7D5FFFDF796
:10AF6000F3FFFDF79FFFFFF7F3FDFDF78FFC00F008
:10AF700039F8FFF7BBFFFDF7E5FF002168460170D8
:10AF80006521417002236A4619460520FDF7D2FE6D
:10AF9000FFF750FA002008BD0080000800ED00E037
:10AFA00070B502460B46FF25FF2408E01178521CBD
:10AFB00069400748405C604005460648445C1846C6
:10AFC0005E1EB3B20028F1D12002284370BD0000FC
:10AFD0002CB300082CB4000801480068704700003A
:10AFE000D000002000B58DB00120C002FEF75CF853
:10AFF000142108A8FDF751F900200B9009900021B9
:10B0000068460184C0200A9008A801746846FEF7CB
:10B0100069FA602000900020049005900690079047
:10B02000602003906A4601211D48FEF72BFA08A90B
:10B030001B48FEF7DBF90120C00319494031486085
:10B040006820174988610846FEF7CAF901201449AB
:10B0500008620220FEF71AF800200B9009902721C1
:10B06000684601841C200A90002108A8017408A9E0
:10B070000C48FEF7BBF900BF0A48C068012108432D
:10B080000849C86000BF0846FEF7AAF91020FEF77D
:10B090002FFB00211020FEF735FB0DB000BD000096
:10B0A000002C01400004004000B58DB00120FEF7E7
:10B0B00059F901204004FDF7E9FF04200790022020
:10B0C00008900320099000200A9001200B90042092
:10B0D0000C9007A905200007FEF792F802200790C0
:10B0E00009200C9007A905200007FEF789F8002128
:10B0F0001C20FEF707FB1C20FEF7FAFA4B20C001CC
:10B10000009000200190029003900C2004900020F9
:10B110000590069069461248FEF7EEF900BF104808
:10B1200000690121C90288430D4908610846406948
:10B13000082188430A49486100BF00BF0846C0682B
:10B14000202108430649C86000BF00BF0846C06808
:10B15000491408430249C86000BF0DB000BD00009B
:10B160000044004010B5024600200BE0135C0A4C7E
:10B17000636000BF084B1B6880242340002BF9D07C
:10B18000431CD8B28842F1DB00BF0348006840236B
:10B1900018400028F9D010BD004400407FB5044697
:10B1A0000D461E480068002836D1082D34D100BF56
:10B1B00007E0215C1A4A125C914200D07FBD411C1D
:10B1C000C8B20828F5DBFF2210216846FDF75EF8BB
:10B1D0001448FFF74FFC01216846017001711022ED
:10B1E00069461048FCF778FF00BF00BF00BF00BFF2
:10B1F00000BFBFF34F8F00BF00BF00BF0A480B491D
:10B20000C86000BF00BF00BFBFF34F8F00BF00BFCB
:10B2100000BF00BF00BFFDE700BFCFE73C06002036
:10B220005701002000FE00080400FA0500ED00E0D0
:10B230007047000000000000000000000000000057
:10B2400000000000000000000000000000000000FE
:10B2500000000000010000000200000003000000E8
:10B2600004000000060000000700000008000000C5
:10B2700009000000000000000000000000000000C5
:10B2800000000000010000000200000003000000B8
:10B290000400000000093D0000127A000024F400C0
:10B2A0004086510100366E0100093D0000093D0055
:10B2B00000093D00081C30000000000404040000E8
:10B2C0000800000008000008000000080002040652
:10B2D000080A0C000102030405067F0D670D4F0DDF
:10B2E000360D1C0D020DE80CCD0CB10C950C780C34
:10B2F0005B0C3E0C200C010CE20BC30BA30B830B6D
:10B30000620B410B200BFF0ADD0ABB0A990A760A81
:10B31000530A300A0D0AEA09C709A30980095D0921
:10B3200039091509F208CF08AB08880800C1814027
:10B3300001C0804101C0804100C1814001C0804105
:10B3400000C1814000C1814001C0804101C08041F5
:10B3500000C1814000C1814001C0804100C18140E5
:10B3600001C0804101C0804100C1814001C08041D5
:10B3700000C1814000C1814001C0804100C18140C5
:10B3800001C0804101C0804100C1814000C18140B5
:10B3900001C0804101C0804100C1814001C08041A5
:10B3A00000C1814000C1814001C0804101C0804195
:10B3B00000C1814000C1814001C0804100C1814085
:10B3C00001C0804101C0804100C1814000C1814075
:10B3D00001C0804101C0804100C1814001C0804165
:10B3E00000C1814000C1814001C0804100C1814055
:10B3F00001C0804101C0804100C1814001C0804145
:10B4000000C1814000C1814001C0804101C0804134
:10B4100000C1814000C1814001C0804100C1814024
:10B4200001C0804101C0804100C1814000C0C10114
:10B43000C30302C2C60607C705C5C404CC0C0DCDA4
:10B440000FCFCE0E0ACACB0BC90908C8D81819D914
:10B450001BDBDA1A1EDEDF1FDD1D1CDC14D4D51544
:10B46000D71716D6D21213D311D1D010F03031F134
:10B4700033F3F23236F6F737F53534F43CFCFD3D64
:10B48000FF3F3EFEFA3A3BFB39F9F83828E8E92954
:10B49000EB2B2AEAEE2E2FEF2DEDEC2CE42425E504
:10B4A00027E7E62622E2E323E12120E0A06061A174
:10B4B00063A3A26266A6A767A56564A46CACAD6D24
:10B4C000AF6F6EAEAA6A6BAB69A9A86878B8B97994
:10B4D000BB7B7ABABE7E7FBF7DBDBC7CB47475B5C4
:10B4E00077B7B67672B2B373B17170B050909151B4
:10B4F0009353529296565797559594549C5C5D9DE4
:10B500005F9F9E5E5A9A9B5B9959589888484989D3
:10B510004B8B8A4A4E8E8F4F8D4D4C8C4484854583
:10B52000874746868242438341818040666C6173CF
:10B5300068206472697665720000000061707000B6
:10B5400063617263206D310068B50008000000205F
:10B55000B0010000F4870008ACB50008B00100207D
:10B56000C808000018A8000801C20815127A002CAB
:10B57000B500082E35015501080F1D241800BA002A
:10B58000DA2A030A101718003700570659060B0B62
:10B59000123052100A2201FF8150A55A3826FE05AA
:0CB5A0001D3CB50008D540B500080000B7
:04000005080080C1AE
:00000001FF
