:020000040800F2
:1000000050060020D5000008B1110008AD07000817
:1000100000000000000000000000000000000000E0
:10002000000000000000000000000000CB150008E8
:100030000000000000000000C9150008CD150008F0
:10004000E7000008E7000008E7000008E7000008F4
:10005000E7000008E7000008E7000008E7000008E4
:1000600000000000E7000008E700000800000000B2
:10007000CD040008E7000008E700000800000000C9
:100080009D160008E700000800000000E7000008D7
:1000900000000000E7000008E7000008E700000893
:1000A00000000000E700000800000000E700000872
:1000B000E700000800000000000000000000000051
:1000C0000348854600F09CF9004800477D0400087D
:1000D000500600200448804704480047FEE7FEE73A
:1000E000FEE7FEE7FEE7FEE755160008C100000840
:1000F000F8B502464A40D40F42004B0052085B0854
:100100009A4202D20246084611464A0023D0C30D45
:100110004A00DDB2120EAD1A202D35DA4902012651
:10012000490AF6058A19002C00D0524220214F1BA3
:100130001146B9402A411018C20D9A4221D0002C14
:1001400017D0012D08DCDA05801AD20F8019D207EA
:10015000DBB200F01BF9F8BDDA05801A012340007C
:100160001B06C01880185A428018CA0F1043490055
:1001700007E04908C2071143DA05801A80194008D0
:10018000801800F0FBF8F8BD61000122511A001B35
:10019000F7E70122D2075140AAE70122D2075040D7
:1001A000A6E7024670B54A40D30FDB0740002DD0CA
:1001B0004A002AD0010E140E000212020919400A48
:1001C000520A8418E50104465443000A120A2E0418
:1001D0005043A4194219200CC543AA18120C01253A
:1001E000AD03521C521912047F39240400D0521C52
:1001F000104301D44000491EC2B20C06C0092018A9
:10020000401C4008802A02D003E0002070BD400856
:100210004000002900DA0020184370BD70B5024686
:100220004A40D50F40004A00ED0740085208002818
:1002300014D0002A12D0C40DD30D41020120C005F4
:100240005202490A520AE41A091812187D349142DE
:1002500001D3641C00E04900002C01DA002070BDCD
:100260000023914201D3891A034340084900002822
:10027000F7D100290AD0914202D10121C90705E036
:10028000914201D2012101E00121C943E005C018DA
:10029000401900F073F870BDC217C10F504010B57F
:1002A0004018CA079623002100F070F810BD10B561
:1002B00000229623114600F069F810BDC20F4100DC
:1002C00040020123400ADB05D207090EC0187F292E
:1002D00001DA00207047962903DC9623591AC8409A
:1002E00001E096398840002AF4D04042704770B54A
:1002F0000446002903D000202022012310E000281A
:1003000001D00020C043C046C0460DE02546D54080
:100310008D4205D30D469540641B1D4695404019FE
:100320001546521E002DF1DC214670BD70B500252A
:1003300004462E46002911D0002C01DA0125444242
:10034000002901DA012649422046FFF7D0FFB542D5
:1003500000D04042002D00D0494270BD002C02DA8E
:100360000121C90702E0002C00DD03490846C04610
:10037000C046214670BD0000FFFFFF7F002904DA60
:10038000401C490001D140084000704770B400246F
:10039000050C05D11024000402D1002921D011241C
:1003A000050E01D100020834050F01D10001241D02
:1003B000850F01D18000A41C002801DB4000641CD3
:1003C000002908D020252E1B0D46F540A14000D065
:1003D00001212943084301061B1B000ADB1D02D52E
:1003E000002070BC7047DB05181880180029F8DA67
:1003F000401C4900F5D170BC400840007047000027
:10040000064C0125064E05E0E36807CC2B430C3C67
:1004100098471034B442F7D3FFF756FEB0260008D1
:10042000D026000870B58C180578401C6B075B0F50
:1004300001D10378401C2A1106D10278401C03E048
:1004400006780E70401C491C5B1EF9D12B0705D4A1
:100450000023521E0DD40B70491CFAE70378401C90
:10046000CB1A921C03E01D780D70491C5B1C521EB8
:10047000F9D5A142D8D3002070BD000080B582B06C
:100480000120C006009001A900200870FFE701A824
:1004900000782F280DDCFFE7009801A909788A0071
:1004A000805809498850FFE70198401C01A908704D
:1004B000EDE7012040070349086001F027FC002018
:1004C00002B080BD08ED00E00000002080B54F487C
:1004D00000F0B7F9002806D0FFE74C4800F094F987
:1004E00000F08CF8FFE780BD80B586B047480590E6
:1004F00000F028FA0120049000F036FC0499052051
:100500000007032200F094FB0498000500F088FA2D
:10051000059800F0A9F9002805D1FFE7214800213E
:1005200000F02BFAFFE70120009001073748019007
:1005300000F015FA01980021029100F03AFA0198B2
:10054000029900F036FA0198029900F024FA019815
:10055000072100F03BFA0198029900F0D7F90198C1
:10056000029900F090F90198029900F09AF9009927
:100570000198090300F0A2F90198029900F0B8F976
:100580000099019800F0A8F9019800F051F902993A
:100590000C20039000F01EFE039800F00BFE06B046
:1005A00080BDC0460827014080B582B00020019080
:1005B000164800F059F900281AD1FFE7134800F057
:1005C00012FAFFE7114800F045F9002801D0FFE7D3
:1005D000F8E720200190FFE70198002804D0FFE70A
:1005E0000198401E0190F7E7084800F015F9FFE771
:1005F000064800F099F902B080BDC04680B50348B6
:1006000000F03AF95A49088080BDC04600240140F4
:1006100080B584B0564800887D214901884206DCB7
:10062000FFE7534800885349884201DCFFE79CE01C
:1006300005200007022100F08CFA002804D0FFE713
:100640004D490120086003E04B4900200860FFE7A6
:100650004A480078012818D1FFE749480068FFF7A9
:100660001BFE4849FFF79DFD4749FFF7D7FD029064
:100670003F4803900088FFF71AFE0299FFF738FD04
:10068000FFF71CFE03990880FFE73B48006800283D
:1006900025D0FFE7364800884049884204DCFFE760
:1006A0003D490020086019E0314800883C498842F3
:1006B00004DCFFE73849012008600EE02C48008880
:1006C0003849884204DCFFE733490220086003E030
:1006D000314903200860FFE7FFE7FFE724E02448F3
:1006E00000882A49884204DCFFE72B490020086083
:1006F00019E01F4800882649884204DCFFE72649A4
:10070000012008600EE01A4800882249884204DC73
:10071000FFE721490220086003E01F490320086029
:10072000FFE7FFE7FFE7FFE713480068002813D063
:10073000FFE71D480190007801F0D0FB01980168A7
:10074000491C01600068042805DBFFE712480068C7
:1007500015490860FFE704E00F48007801F0BEFB90
:10076000FFE7034900200880FFE704B080BDC046D2
:10077000DC010020CF07000010020020E40100206F
:100780002001002000008CC20000C842B70B00000E
:100790001B0C0000B10C0000D0010020F30B000086
:1007A000390C0000BB0C0000D4010020FFE7FEE77D
:1007B00080B582B000F080FBFFE700F083FB0028EB
:1007C00001D1FFE7F9E70E48019000F0DDFA01984A
:1007D00000F0E4FA0198032100F00EFB01980949AA
:1007E00000F014FBFFE7064800F0E2FA002801D110
:1007F000FFE7F8E7024800F0EDFA02B080BDC0461E
:1008000000300040B80B000081B000900099042037
:10081000086001B07047000081B0009000988068C7
:1008200047490840401C0099886001B07047C046A5
:1008300081B000900099486804221043486001B0DC
:10084000704781B00090009800680421084080083B
:1008500001B0704781B0009000988068C00F401EC2
:100860004142484101B0704781B0009000988068D3
:100870000121084001B0704781B000900098006CE1
:1008800080B201B0704782B0019000910198C068B9
:10089000012149038843009908430199C86002B0C7
:1008A000704782B0019000910198C068032188438D
:1008B000009908430199C86002B0704782B0019066
:1008C00000910198C06801210903884300990843F9
:1008D0000199C86002B0704782B001900091009801
:1008E000024908400199886202B07047FF1B00006E
:1008F00082B0019000910198C068012109048843E9
:10090000009908430199C86002B0704782B0019015
:1009100000910198C06837218901884300990843F4
:100920000199C86002B0704781B00090009880685B
:1009300003490840001D0099886001B07047C04617
:10094000EAFFFF7F80B582B0019001200005009092
:1009500000F076F8009800F07DF802B080BD82B01B
:1009600001900091019800690F21090788430099BF
:1009700008430199086102B0704782B0019000916C
:10098000019800680321890588430099084301996B
:10099000086002B0704782B0019000910198C06871
:1009A000012189038843009908430199C86002B076
:1009B000704782B0019000910198C0681821884367
:1009C000009908430199C86002B0704782B0019055
:1009D00000910198406907218843009908430199D3
:1009E000486102B0704781B0009000988068012192
:1009F000C9070843152188430099886001B07047F2
:100A000082B00190019A05480168114301600068B5
:100A1000019908400090009802B070473C100240D5
:100A200082B00190019A0548016811430160006895
:100A3000019908400090009802B0704740100240B1
:100A400081B00090009A084908681043086001B01E
:100A50007047C04681B00090009A034908689043EF
:100A6000086001B07047C0463010024080B584B0C5
:100A70000390029100200190FFE70298006801991D
:100A8000C840002845D0FFE702980068019A01217C
:100A90009140084000900098002836D0FFE7039866
:100AA0000099029A526800F0D5F80298406801282F
:100AB00005D0FFE702984068022807D1FFE70398B6
:100AC0000099029A926800F03DF9FFE703980099B7
:100AD000029A126900F012F902984068022813D1B4
:100AE000FFE70098FF2807D8FFE703980099029ACC
:100AF000526900F052F806E003980099029A526990
:100B000000F072F8FFE7FFE7FFE70198401C019053
:100B1000B3E702984068012805D0FFE702984068D3
:100B2000022807D1FFE70398029A1168D26800F003
:100B3000C4F8FFE7012004B080BD82B001900091AD
:100B40000198006900990840401A4142484102B0AA
:100B5000704782B0019000910198006900990840A7
:100B6000401A4142484102B0704782B00190009162
:100B700000980199886202B0704782B0019000919C
:100B800000980199886202B0704782B0019000918C
:100B900000980199886202B0704783B00290019179
:100BA00000920298006A019A524352430F21514326
:100BB00088430099514308430299086203B0704783
:100BC00083B00290019100920298406A01990A0A4A
:100BD000524352430F2151438843009951430843E4
:100BE0000299486203B0704783B00290019100926D
:100BF0000298406A01990A0A524352430F21514315
:100C000088430099514308430299486203B07047F2
:100C100082B00190009100980199886102B07047FC
:100C200082B00190009100980199886102B07047EC
:100C300083B002900191009202980068019A524399
:100C400003215143884300995143084302990860A6
:100C500003B0704783B0029001910092029800683F
:100C6000019A524303215143884300995143084359
:100C70000299086003B0704783B00290019100921E
:100C800002980068019A5243032151438843009916
:100C9000514308430299086003B0704783B0029043
:100CA0000191009202984068019A90430099514343
:100CB00008430299486003B0704783B002900191E5
:100CC000009202984068019A90430099514308436A
:100CD0000299486003B0704783B00290019100927E
:100CE0000298C068019A52430321514388430099F6
:100CF000514308430299C86003B0704783B0029023
:100D0000019100920298C068019A52430321514315
:100D100088430099514308430299C86003B0704763
:100D200083B002900191009202988068019A524328
:100D30000321514388430099514308430299886035
:100D400003B0704783B002900191009202988068CE
:100D5000019A524303215143884300995143084368
:100D60000299886003B0704782B00190019A0548EB
:100D700001681143016000680199084000900098E3
:100D800002B070473410024081B0009000990248D0
:100D9000086001B07047C046CCCC000081B0009024
:100DA00000990248086001B07047C04655550000E0
:100DB00081B000900098C06803210840414248413A
:100DC00001B0704781B0009000990A48086001B0F6
:100DD0007047C04681B0009000990648086001B095
:100DE0007047C04681B0009000990248086001B089
:100DF0007047C046AAAA000082B0019000910098F6
:100E0000072108400199486002B0704782B0019004
:100E100000910098024908400199886002B070472B
:100E2000FF0F000080B582B0019001987D21C900BC
:100E300000F002F802B080BD80B582B00190009150
:100E400001980099FFF753FA401E054908600549CB
:100E500000200860D5490520086002B080BDC0466A
:100E600014E000E018E000E02C4800683821084059
:100E70007047C04607490868012212021043086003
:100E80007047C04603480068012189020840800A73
:100E90007047C0460010024081B0009004490868C5
:100EA000044A1040009A1043086001B07047C046E1
:100EB000041002400000FFFF0549086801221043AA
:100EC00008607047024800680221084040087047E7
:100ED0006010024081B00090104908680F22120291
:100EE0009043009A1043086001B0704781B00090B1
:100EF0000A490868072212039043009A10430860C9
:100F000001B0704781B000900449086807229043FF
:100F1000009A1043086001B07047C04608100240B4
:100F200081B0009000980249086001B07047C04647
:100F3000C000002081B0009000990120C0430861EA
:100F400001B0704781B000900099086801221043F9
:100F5000086001B0704781B000900099C868012214
:100F60001043C86001B0704781B000900099486993
:100F700001221043486101B07047000080B584B081
:100F8000039002910398006801900398E849884211
:100F900005D0FFE703982B49884208D1FFE7019865
:100FA000702188430299496808430190FFE703983C
:100FB000DF49884214D0FFE70398224988420FD0C6
:100FC000FFE70398204988420AD0FFE70398D949F0
:100FD000884205D0FFE70398D749884209D1FFE747
:100FE00001980321090288430299C96808430190C6
:100FF000FFE701980399086003980299896800F057
:1010000098F803980299098800F09BF80398C8495A
:1010100088420AD0FFE70398C649884205D0FFE717
:101020000398C549884206D1FFE703980299097CD5
:1010300000F08FF8FFE70398FFF796FF012004B058
:1010400080BDC046000400400020004080B586B04E
:1010500005900491039202A9002008700498019061
:10106000012810D0FFE70198102813D0FFE701985E
:1010700001210902884214D0FFE7019801210903E8
:10108000884215D01BE00598039900F0E5F802A905
:10109000087015E00598039900F050F902A908704E
:1010A0000EE00598039900F0BBF902A9087007E06B
:1010B0000598039900F026FA02A9087000E0FFE7FE
:1010C00002A8007806B080BD82B00190009100981F
:1010D0000199486302B0704782B001900091009876
:1010E0000199886302B0704782B001900091009826
:1010F0000199C86302B0704782B0019000910098D6
:101100000199086402B0704781B0009000990020F6
:10111000086000994860009988600099C86000994B
:10112000086100994861009988610099C86101B01F
:10113000704782B00190009100980199C86202B096
:10114000704782B00190009100980199886202B0C6
:10115000704782B00190009100980199086302B035
:101160007047000083B00290104800680190019819
:10117000029800900098401C002804D0FFE70098D7
:10118000401C0090FFE7FFE7009800280BD0FFE726
:1011900006480068C003002804D5FFE70098401EF9
:1011A0000090FFE7F0E703B07047C04610E000E0B2
:1011B0007047000081B001466846017001781F2029
:1011C0000140012088400249086001B07047C046D4
:1011D00000E100E070B582B0024601A80270009103
:1011E0000021405600281BD5FFE701A908780F24ED
:1011F000204008380322D3431840164A805800255F
:1012000049578D07EE0EFF25B540A843009DAD015F
:10121000EDB2B5402843214008391940885015E007
:10122000002401A908570322D3431840084A8058D4
:1012300009578C07E50EFF24AC40A043009CA40195
:10124000E4B2AC40204319408850FFE702B070BDC3
:1012500000E400E01CED00E080B586B0059004914C
:10126000059A106A0121C943084010620598006A76
:101270000290059840680190059880690390039852
:10128000032290430390039870229043049A1268BB
:1012900010430390029802229043049A126910436B
:1012A0000290029808400499496808430290059802
:1012B000C24988420AD0FFE70598C149884205D053
:1012C000FFE70598BF49884221D1FFE7029808212E
:1012D00088430499496989000843029002980421CF
:1012E0008843049989688900084302900198012184
:1012F0000A029043049A92691043019001984902AE
:1013000088430499C969490008430190FFE701989F
:101310000599486003980599886105980499C968FA
:10132000FFF7D2FE029805990862012006B080BD41
:10133000002C0140004401400048014080B586B0C7
:1013400005900491059A106A1021C9430840106263
:101350000598006A02900598406801900598806998
:1013600003900398032212029043039003980722EC
:1013700012039043049A12681202104303900298D9
:1013800020229043049A126912011043029002989D
:101390000840049949680901084302900598874963
:1013A00088420AD0FFE705988549884205D0FFE7C3
:1013B00005988449884222D1FFE70298802188431A
:1013C00004994969890108430290029840218843A1
:1013D00004998968890108430290019801218A02D1
:1013E0009043049A92699200104301900198C902B7
:1013F00088430499C969C90008430190FFE701982F
:101400000599486003980599886105980499C96809
:10141000FFF762FE029805990862012006B080BDC0
:1014200080B586B005900491059A106A3449084049
:1014300010620598006A029005984068019005982E
:10144000C06903900398032290430390039870228D
:101450009043049A126810430390029801225202AA
:101460009043049A126912021043029002980840B5
:101470000499496809020843029005984F49884237
:101480000AD0FFE705984E49884205D0FFE7059846
:101490004C49884222D1FFE702980121CA029043B9
:1014A000049A526992021043029002988A02904371
:1014B000049A926892021043029001980A039043A2
:1014C000049A9269120110430190019849038843DC
:1014D0000499C969490108430190FFE701980599FA
:1014E000486003980599C86105980499C968FFF791
:1014F000FBFD029805990862012006B080BDC04638
:10150000FFFEFFFF80B586B005900491059A106A32
:101510002949084010620598006A029005984068C1
:1015200001900598C069039003980322120290432A
:1015300003900398072212039043049A1268120240
:10154000104303900298012252039043049A1269B7
:101550001203104302900298084004994968090355
:10156000084302900598154988420AD0FFE705987C
:101570001349884205D0FFE70598124988420AD1ED
:10158000FFE701980121890388430499896989014A
:1015900008430190FFE70198059948600398059971
:1015A000C86105980499C968FFF7A6FD02980599D6
:1015B0000862012006B080BDFFEFFFFF002C014054
:1015C00000440140004801407047704780B503491E
:1015D0000868401C086000F0ABFA80BD440200209F
:1015E00080B582B0FFF746FC1648006816490840EF
:1015F0000121C9034018FFF74FFCFFE7FFF742FC4A
:10160000012801D0FFE7F9E700200190FFF762FC15
:101610000198FFF777FCFFE7FFF726FC002801D0D1
:10162000FFE7F9E70020FFF761FC08480090FFF7AB
:10163000F9FB0098FFF774FC05490320086002B02D
:1016400080BDC046100FFF1FFF1F000000366E0157
:1016500010E000E0074A11680748014007480068A9
:1016600001430120430319431160C0060449086087
:101670007047C046041002400000FFFF040FFF1F28
:1016800008ED00E080B5044900200880FFE702482B
:1016900000F00EF8FBE7C0463802002080B5034892
:1016A000FFF748FC00F0A8F880BDC04600040040E9
:1016B00080B584B00290029800880190002804D080
:1016C000FFE70198392851D05EE097480090006804
:1016D0009649FEF72BFE084600F0C0F90098006816
:1016E0009349096800F06EFD9248007800F084FC90
:1016F000FEF78EFFD8480221FFF78AFAFFE700F0D5
:10170000BDF887480068002812D0FFE700F052FBC0
:1017100000F006FF21480168214848430121C841E3
:101720002049884203D8FFE7FEF772FFFFE7FFE793
:101730001A4801681C4848430121C8411B49884296
:1017400006D8FFE71A48FFF74DFBFEF72DFFFFE72E
:1017500012490868401C0860FFE700F025FB029969
:101760004860FFE7029939200880FFE700F01CFB82
:1017700002994968401A632803D8FFE700200390C4
:1017800008E0FFE7FFE7BAE702990020088002209F
:101790000390FFE7039804B080BDC046D801002045
:1017A000ABAAAAAAAAAAAA2ACDCCCCCC9999991953
:1017B0000030004080B582B001A900200870FFE72A
:1017C00001A80078272815D8FFE701AA1078800023
:1017D000D6490B1800209870127892008918C870AA
:1017E0002449087000F068FCFFE70198401C01A93B
:1017F0000870E5E702B080BD80B582B01D48007872
:1018000000280ED0FFE71B48009000781A494018C6
:10181000401E007800F06EFC00990878401E0870A9
:10182000FFE714480078002821D1FFE701A9002034
:101830000870FFE701A80078272817D8FFE701A85C
:1018400000788100B94840188078002808D0FFE768
:101850000198084B1A78511C197007498854FFE702
:10186000FFE70198401C01A90870E3E7FFE702B019
:1018700080BDC0460E020020E501002080B584B086
:1018800075480121FFF765F9002841D1FFE723489A
:101890000168491C016000681F2838DBFFE7204809
:1018A00003900168C9430160007800F0BFFB039812
:1018B0001A4A00211160006800281ED0FFE719496C
:1018C0000020029008701848019000689549FEF7C2
:1018D0002DFD084600F0C2F8019800681449096817
:1018E00000F070FC0299F9480170007800F084FB68
:1018F00059480221FFF78CF908E0FFF75BFF00F081
:1019000073FB55480221FFF738F9FFE7FFE703E0D3
:10191000024900200860FFE704B080BD14020020E7
:10192000E00100201C0200201C0100201027000004
:1019300020010020E401002080B58EB00120089035
:10194000FFF712FA02200C90FFF70EFA2020019008
:10195000FFF70AFA0199052000070B90032209926C
:10196000FFF7DEF901990B9800220D92FFF796F927
:10197000099A0B9840210291FFF7D2F902990B982E
:101980000D9AFFF78BF9099A0B9880210391FFF7C5
:10199000C7F903990B980D9AFFF780F9099A0C99EA
:1019A0002C480690FFF7BCF906980C990D9AFFF7A2
:1019B00075F90698099A04210591FFF7B1F905997F
:1019C00006980D9AFFF76AF90899099A0B98090386
:1019D0000491FFF7A5F904990B980D9AFFF75EF9AA
:1019E0000599099A0B98FFF79BF905990B980D9AA1
:1019F000FFF754F9089AE8480A901146FFF76CF986
:101A000008990A980D9AFFF713F90698089A082181
:101A10000791FFF761F9069807990D9AFFF708F902
:101A2000089A0A980C99FFF703F9099A0A980C99F1
:101A3000FFF776F90A980C990D9AFFF72FF90A9893
:101A40000C99FFF792F80B980C990D9AFFF7F0F8A4
:101A50000EB080BD000400500014005080B586B068
:101A6000059005982F49884201DBFFE758E00320E5
:101A70000490FFE70498002852D4FFE705980A2154
:101A8000FEF754FC2848405C039004990720484323
:101A900002900598002804DCFFE7049803281CD175
:101AA000FFE701A900200870FFE701A800780628D9
:101AB00012DCFFE7039801A90A78D0400121084011
:101AC000029989188A00194989188870FFE70198D6
:101AD000401C01A90870E8E718E06946002008707A
:101AE000FFE76846007806280FDCFFE702986946A2
:101AF0000978401881000D48411800208870FFE7E0
:101B00000098401C69460870EBE7FFE705980A213A
:101B1000FEF70CFC0590FFE70498401E0490A9E72F
:101B200006B080BD10270000A6260008280100206E
:101B300080B582B0E3480078002805D0FFE79848D8
:101B40000068002801D1FFE7BEE061490868401C39
:101B5000086060480068DE490968884210D0FFE7E5
:101B6000DB4800685B4908605B4801685B4A1160BC
:101B700000685B4908605B4800685B490860FFE7F4
:101B8000D34800680190012808D0FFE70198022897
:101B90003CD0FFE70198032859D094E04C480168F5
:101BA00052484843524940180122D04188422CD81B
:101BB000FFE750480078002810D1FFE7524801683D
:101BC000491E01600068002807DCFFE74949012041
:101BD00008704D4900200860FFE70FE04A4801689F
:101BE000491C01600068642807DBFFE741490020C9
:101BF0000870454964200860FFE7FFE73748006840
:101C00004149096800F03EFBFFE75DE030480068AD
:101C100019210901FEF78AFBC82907D1FFE72F48E0
:101C200000683149096800F02DFB0FE02848016881
:101C300032484843324940180421C841314988425A
:101C400003D8FFE700F0D0F9FFE7FFE73CE02048CA
:101C5000016826484843264940180122D04188425D
:101C600030D8FFE723480078002813D1FFE71C484D
:101C700001683239016000681921C901884208DC15
:101C8000FFE71C490120087015491920C0010860B0
:101C9000FFE710E012480168323101600068164920
:101CA000884207DBFFE71349002008700C491248FF
:101CB0000860FFE7FFE70A4800680B49096800F081
:101CC000E1FAFFE700E0FFE702B080BDE401002099
:101CD000200200202C0200204802002030020020B8
:101CE000340200202401002028020020EFEEEEEE56
:101CF000888888082402002064190000295C8FC2AB
:101D000050B81E050AD7A3001801002080B582B084
:101D100000200190FFF764FC7D20C000FFF722FA4D
:101D2000FEF746FDFFF708FEFEF7DEFB00F030FB96
:101D30001848FFF793FE00F057F9FFE71648012116
:101D4000FEF7FBFE002814D1FFE714480168491C88
:101D5000016000681F280BDBFFE711480168C943D9
:101D60000160007800F062F90C49002008600BE087
:101D700003E00A4900200860FFE70A48FFF722F85D
:101D80006420FFF7EFF9D9E7FFF77CFC019802B078
:101D900080BDC046B822000000140050140200208C
:101DA000E001002000300040014800687047C04654
:101DB0004402002080B582B040480821FEF7C9FEE9
:101DC000002833D1FFE73E480168491C01600068E4
:101DD00015282ADBFFE73B480078002804D1FFE7FD
:101DE00038490120087003E0364900200870FFE7F9
:101DF00034480190007800F0FFF80198007801283D
:101E000005D1FFE732480068FFF728FE08E02E48BA
:101E100000682E49FEF78AFA0846FFF71FFEFFE723
:101E200027496320C0430860FFE744E02448006876
:101E3000012826DBFFE722480068042821DCFFE7B1
:101E40002048007800281CD1FFE7224801784A4248
:101E5000514101700078012805D1FFE71E48006854
:101E6000FFF7FCFD08E0184800681849FEF75EFA25
:101E70000846FFF7F3FDFFE711491D20C043086046
:101E800018E00F48006800280FD5FFE70C480168EC
:101E9000491D016000680321C943884204DBFFE754
:101EA000074900200860FFE703E0054900200860BB
:101EB000FFE7FFE7FFE702B080BDC0460004005027
:101EC00018020020E40100201C010020102700005F
:101ED000C80100201C0200202001002082B0014621
:101EE00001A80170B54A72230121D1547623D1543F
:101EF0007A23D1547E23D15400780090032833D81C
:101F00000098810001A040588746C0461D1F000868
:101F10002F1F0008431F0008571F0008A7498222EF
:101F200000208854862288548A22885425E0A349B8
:101F3000822200208854862288548A2201208854D4
:101F40001BE09E498222002088548622012088546A
:101F50008A22885411E099498222012088548622DD
:101F600088548A22885408E09449822200208854A8
:101F7000862288548A228854FFE702B07047C04600
:101F800081B0009000980B49884204DBFFE71949B3
:101F9000094808600CE00098132804DCFFE71549A5
:101FA0000020086003E0009812490860FFE7FFE79F
:101FB00001B07047270200002602000080B584B0FF
:101FC0000390029101A802700078002805D0FFE775
:101FD00003980299FEF724FE04E003980299FEF7A5
:101FE000D4FDFFE704B080BDE74900200860014947
:101FF000086070473420004081B001466846017097
:102000000078002808D0FFE76C499A220120885404
:1020100096220020885407E068499A2200208854BC
:10202000962201208854FFE701B0704780B58CB03C
:1020300001460BA80170007801281DD1FFE705209B
:102040000007089001210A91890307910022069256
:10205000FEF7EEFD069A08980A99C9030991FEF762
:10206000E7FD079908980A9AFEF736FE089809993D
:102070000A9AFEF731FE1DE00520000703900121BA
:1020800000918903029102220192FEF7D1FD00998D
:10209000019A0398C9030491FEF7CAFD02990398B7
:1020A00000220592FEF78CFD03980499059AFEF72D
:1020B00087FDFFE70CB080BD80B582B001A900208C
:1020C0000870FFE701A80078062811D8FFE701A8EB
:1020D00000780C2242433A4881188058496800220F
:1020E000FEF7CAFDFFE70198401C01A90870E9E767
:1020F00002B080BDF0B587B006AD28702E4E3068B6
:1021000080002E4C215C05A80290017000780C2202
:10211000039242432A48049081188058496800225B
:102120000092FEF7A9FD009A0299039B0498376874
:10213000BF00E7197F780F7009784B43C118C0586A
:102140004968FEF799FD0299039A04982B78336049
:102150002B789B00E35C0B7009784A438118805808
:10216000496801220192FEF787FD0299039A0498BB
:1021700009784A43811880584968FEF751FD019A51
:102180000299039B04982D78AD00641964780C7053
:1021900009784B43C118C0584968FEF76DFD029994
:1021A000039A049809784A43811880584968FEF7D1
:1021B000ECFC07B0F0BDC046400200202801002022
:1021C000C400002080B58AB0099008910998584948
:1021D000884204DCFFE71920C001099008E0099853
:1021E0005449884203DBFFE753480990FFE7FFE7C4
:1021F00009995148401AFEF74FF850490191FEF7EE
:102200000DF8079009984E494018FEF745F80199D6
:10221000FEF704F8069007984A49FDF7C2FF0290BE
:102220000898FEF739F848490391FDF7F7FF014692
:102230000298FDF7B6FF05900598FEF73FF800F00D
:1022400087F806984149FDF7ACFF04900898FEF71F
:1022500023F80399FDF7E2FF01460498FDF7A1FF7B
:1022600005900598FEF72AF8FFF78AFE09980349BA
:1022700008600898024908600AB080BD4802002042
:102280002401002080B58AB0099008910998284956
:10229000884204DCFFE71920C001099008E0099892
:1022A0002449884203DBFFE723480990FFE7FFE763
:1022B00009992148401AFDF7EFFF20490191FDF7E8
:1022C000ADFF079009981E494018FDF7E5FF0199F9
:1022D000FDF7A4FF069007981A49FDF762FF0290E8
:1022E0000898FDF7D9FF18490391FDF797FF0146BC
:1022F0000298FDF756FF05900598FDF7DFFF00F007
:1023000027F806981149FDF74CFF04900898FDF74F
:10231000C3FF0399FDF782FF01460498FDF741FFD3
:1023200005900598FDF7CAFFFFF72AFE0AB080BDA9
:102330007F0C0000651900006419000000404E4544
:1023400080F3FFFF008004440000C84200007A448C
:1023500081B0009000980B49884204DBFFE70A49EE
:102360000A4808600CE00098132804DCFFE70649DF
:102370000020086003E0009803490860FFE7FFE7DA
:1023800001B0704727020000342C014026020000F3
:1023900080B5B6B001200B90C002FEF741FB0220D1
:1023A0000090FEF72DFB0B98C0030890FEF738FB5A
:1023B000009800210F9135913491339132913191F0
:1023C00030910821309131900D2035900520000783
:1023D000019030A9FEF74AFB00990F9A01982F92BD
:1023E0002E922D922C922B922A9210220E922A92A9
:1023F0002B9104212F912AA9FEF738FB0F982990E1
:1024000028902790269025902890269025A90C9119
:1024100008807D22D2000492279208741DA80290A1
:10242000FEF772FE029A0B990F98602305931D9395
:102430002190229023902490209030480390FEF722
:1024400005FE0C990398FEF799FD089903982C4A0C
:1024500011602C4A682109911160FEF773FD049AFE
:102460000B990F98284B19601C901B901A9019908B
:1024700018901B90199018A9079108801A92087457
:1024800010A80690FEF740FE059B069A0B990F9840
:102490001093149015901690179013901B480A9063
:1024A000FEF7D4FD07990A98FEF768FD089A099986
:1024B0000A98174B1A60174A1160FEF743FD0B9AF2
:1024C0000C990F98144B1A60289026904F220A807E
:1024D00063222792087411480D90FEF74FFD0D9866
:1024E000FEF739FD0D98FEF72DFD0E98FEF762FE02
:1024F0000E980F99FEF76EFE36B080BD002C01409D
:10250000442C0140182C0140202C014000200040A8
:1025100044200040182000402020004000040040DB
:1025200080B55148007801282FD1FFE7052000072A
:1025300001218903FEF70DFB00280ED1FFE751486A
:102540000068022808DCFFE74E480168491C01606A
:102550000068FFF783FAFFE7FFE705200007012186
:102560004903FEF7F6FA00280ED1FFE74548006858
:10257000022808DBFFE743480168491E0160006844
:10258000FFF76CFAFFE7FFE76CE005200007012189
:102590008903FEF7DEFA00282DD1FFE733480078E3
:1025A00001280ED1FFE735480068632808DCFFE703
:1025B00032480168491D01600068FFF74FFAFFE7E4
:1025C00012E02B4800682B4988420CDCFFE72848C2
:1025D00001683231016000682749FDF7A7FE08460F
:1025E000FFF73CFAFFE7FFE7214800682349096845
:1025F000FFF7E8FDFFE70520000701214903FEF78B
:10260000A8FA00282DD1FFE71848007801280ED13C
:10261000FFE71A480068062808DBFFE7174801684B
:10262000491F01600068FFF719FAFFE712E0104840
:102630000068134988420CDBFFE70D480168323916
:10264000016000680C49FDF771FE0846FFF706FAC5
:10265000FFE7FFE70648006808490968FFF7B2FD91
:10266000FFE7FFE780BDC046E40100201C02002018
:102670001C01002063190000102700002001002029
:10268000810C0000C801002002E008C8121F08C128
:10269000002AFAD170477047002001E001C1121FE3
:1026A000002AFBD170473F065B4F666D7D077F6F49
:1026B000D026000800000020D001000024040008FB
:1026C00068270008D0010020800400009826000838
:1026D00001C143127A33502013BD1F2A080C9A40BF
:1026E0000C6A800C12049B50020C9A0424118A106C
:1026F0000C6918326423800C32322904113201191A
:10270000413203292429095913111A01051A01100C
:102710001A04111B01050419211A020C1A03041AC8
:1027200004181A02101A0304191B112A054419046B
:102730001A04041A06111B05060C290819282A0375
:102740000819281A04141A06201A02083A02353108
:10275000190C1A01042A031C290F298519041A06C9
:08276000642A057871000000F5
:04000005080000C12E
:00000001FF
